:020000040800F2
:1000000098070020E5020008032E0008392D00089B
:10001000012E0008851F00089D3100080000000027
:10002000000000000000000000000000092E000891
:10003000871F000800000000052E00080B2E000896
:10004000FF020008FF020008FF020008FF0200088C
:10005000FF020008072E0008FF020008FF02000848
:10006000FF020008FF020008FF020008FF0200086C
:10007000FF020008FF020008FF020008FF0200085C
:10008000FF020008FF020008FF0200080000000055
:10009000000000000000000000000000FF02000857
:1000A000FF020008FF020008FF020008FF0200082C
:1000B000FF020008FF020008FF020008FF0200081C
:1000C000FF020008FF020008FF020008FF0200080C
:1000D000FF020008FF020008FF0200080000000005
:1000E000FF020008FF020008FF02000800000000F5
:1000F000000000000000000000000000FF020008F7
:1001000000000000FF020008FF020008FF020008D4
:1001100000000000000000000000000000000000DF
:10012000FF020008FF020008FF020008FF020008AB
:10013000FF020008000000000000000000000000B6
:10014000000000000000000000000000FF020008A6
:10015000FF020008FF020008FF02000891310008BA
:10016000FF020008FF02000800000000000000007D
:10017000000000000000000000000000000000007F
:1001800000000000FF020008000000000000000066
:10019000FF020008FF02000800F002F800F092F8E9
:1001A0000AA090E8000C82448344AAF10107DA45D2
:1001B00001D100F087F8AFF2090EBAE80F0013F092
:1001C000010F18BFFB1A43F001031847B4350000B4
:1001D000D4350000103A24BF78C878C1FAD8520745
:1001E00024BF30C830C144BF04680C6070470000B1
:1001F0000023002400250026103A28BF78C1FBD830
:10020000520728BF30C148BF0B6070476E2900F00D
:100210008582702900F0C783662903F0A5816529CE
:1002200003F0A281672903F09F81612903F09E8179
:1002300003681B0A28BF41F08001692900F032825F
:10024000642900F02F82752900F02C826F2900F0BC
:100250005483782900F09383E92900F0EF82E429A0
:1002600000F0EC82F52900F0E982EF2900F05183DB
:10027000F82900F092830368DB0928BF41F0800170
:10028000632901F0FB80732901F00081E32901F06B
:100290000B81F32901F01081002070471FB503F096
:1002A0005EF901F0BFF904000020002103F0B4F86A
:1002B000401C60600020002103F0C4F8E0601FBD16
:1002C00010B510BD01F089F91146FFF7E7FF02F004
:1002D000FFFF01F06BFA03B4FFF7F2FF03BC01F07C
:1002E0006FFA00000948804709480047FEE7FEE72B
:1002F000FEE7FEE7FEE7FEE7FEE7FEE7FEE7FEE7D6
:1003000004480549054A064B70470000A12E000825
:100310009901000898010020980700209803002008
:100320009803002053EA020C00F069802DE9F04B9D
:100330004FF00006002B1FBFB3FA83F503FA05F454
:1003400024FA05F65E4012BF1643B2FA82F502FAAD
:1003500005F4C5F120051EBF22FA05FC44EA0C0491
:10036000203556EA044C4FEA144418BF641C4FF081
:1003700000084FF00009904271EB030C39D30029BB
:1003800019BFB1FA81F701FA07F6B0FA80F700FA5F
:1003900007F6C7F120071EBF20FA07FC46EA0C0645
:1003A0002037B6FBF4FCA7EB0507103F07F01F0B47
:1003B000CBF120060CFA0BFB2CFA06F644BFB34631
:1003C0000026202FA4BF5E464FF0000B5BEA060C10
:1003D00008BF4FF0010B19EB0B09ABFB027C48EB9C
:1003E0000608C01B06FB02CC0BFB03CC71EB0C0117
:1003F000C1E70B46024641464846BDE8F08B13B5BF
:100400004FF000004FF00001AFF30080BDE81C404A
:10041000704700001CB50C46064B7B4469460090B3
:10042000204600F094F904460020694600F0A2F945
:1004300020461CBD5703000070B5064600F0CCF8FE
:100440000468054630460A22002100F07BFB2C6040
:1004500070BD0000014A00F0ADBB00004400002068
:1004600010B5431C02E010F8011B71B18107FAD1ED
:100470004FF0013202C88C1A8C4314EAC211F9D031
:10048000C01A0A0603D0C01E10BDC01A10BD0A044F
:1004900001D0801E10BD0902FCD0401E10BD10B559
:1004A000203AC0F00B80B1E81850203AA0E818506C
:1004B000B1E81850A0E81850BFF4F5AF5FEA027C2D
:1004C00024BFB1E81850A0E8185044BF18C918C09C
:1004D000BDE810405FEA827C24BF51F8043B40F83D
:1004E000043B08BF7047D20728BF31F8023B48BF22
:1004F00011F8012B28BF20F8023B48BF00F8012B60
:1005000070474FF0000200B51346944696462039D6
:1005100022BFA0E80C50A0E80C50B1F12001BFF4BC
:10052000F7AF090728BFA0E80C5048BF0CC05DF822
:1005300004EB890028BF40F8042B08BF704748BF70
:1005400020F8022B11F0804F18BF00F8012B7047E4
:100550004FF0013C50F8042B51F8043B9A4221D152
:10056000A2EB0C03934313EACC1317D150F8042BDE
:1005700051F8043B9A4215D1A2EB0C03934313EAC2
:10058000CC130BD150F8042B51F8043B9A4209D1FB
:10059000A2EB0C03934313EACC13DBD04FF0000023
:1005A000704700BFD01A01BAB1FA81F101F0180109
:1005B00022FA01F0CB40C1F12001DBB2C0B2C01A77
:1005C0002CFA01F3D11A914311EAC311E6D1704715
:1005D00070477047704700000048704734010020A2
:1005E00070B5044685690068C10601D5302600E073
:1005F0002026C00707D070BDD4E9012130469047BE
:10060000206A401C20626D1EF6D570BD70B5044690
:1006100085690078C00707D170BDD4E90121202089
:100620009047206A401C20626D1EF6D570BD096897
:100630004A0501D540B27047C905FCD500B27047E4
:1006400009684A0501D5C0B27047C905FCD580B21A
:10065000704770B50C460546012A05D028788006FB
:1006600000D5EA69002302E0012305E05B1C934208
:1006700002D2E05C0028F9D1A869E618C01AA86186
:10068000286A184428622846FFF7AAFF04E0D5E943
:10069000012114F8010B9047B442F8D32846FFF724
:1006A000B5FF70BD2DE9F04106460024106875299C
:1006B000314616A510D0FFF7BAFF002802DA4042F3
:1006C00013A507E031688A0701D512A502E04907A2
:1006D00004D511A5012401E0FFF7B2FF00210A2291
:1006E00006F1240709E0B0FBF2FCB0FBF2F302FBD9
:1006F0001C00303078541846491C0028F3D123469A
:100700002A463046BDE8F04100F0C7BA00000000BC
:100710002D0000002B00000020000000116802687E
:10072000006A530501D508700AE0D30501D5088099
:1007300006E0130603D5C217C1E9000200E0086015
:100740000120704701694A1C02610878704700B5B2
:100750008FB0CDE901310021059105497944CDE9FA
:1007600003101146684600F029F90FB000BD0000E3
:10077000E5FFFFFF0A6802F8010B0A6070470000FE
:100780002DE9FF5F15468A460446DFF8AC80F84441
:100790000027D8E900103E46CDE9001010E03AF8F5
:1007A00016106A4602A800F0DAFE411C07D0217834
:1007B000890603D5E269391891420DD80744761CA1
:1007C0002078800602D5E069B84205DDAE42E6DB5E
:1007D0003AF816000028E2D1A069C01BA0612046AB
:1007E000FFF7FEFED8E90010CDE90010002017E069
:1007F0003AF818106A4602A800F0B1FEB0F1FF3FC7
:1008000081460BD000250DF1080B05E0D4E901214C
:100810001BF8050090476D1C4D45F7D308F101000A
:10082000B0428046E4DB206A384420622046FFF76D
:10083000EDFEBDE8FF9F0000F62D00002DE9F04120
:100840008046D21D22F007020025D2E90002F529D8
:1008500015A614D0011E72F1000106DA0023D0EBB8
:10086000030063EB020211A608E0D8F800108B0722
:1008700001D50FA602E0490701D50EA601251146B4
:10088000002408F1240704E000F0C2F930323A55A0
:10089000641C50EA0102F7D12B46324621464046FD
:1008A000BDE8F04100F0F9B9000000002D000000A3
:1008B0002B0000002000000030B4002100F12404CF
:1008C00008E002F00705D208303542EA4372DB083F
:1008D0006554491C52EA0305F3D10468002310A2B1
:1008E000250707D5A40600D421B1C46901230DA2B0
:1008F000641EC46130BC00F0D0B910B50446214676
:100900001068FFF79DFE02462046BDE81040002318
:10091000D2E7D21D22F00701D1E90023CCE7000085
:100920000000000030000000F0B40D460188090509
:1009300002D5214C7C4402E01F4C7C440E34002143
:1009400000F1240608E002F00F071209E75D42EA11
:1009500003721B097754491C52EA0307F3D102784A
:100960000023120704D5702D06D009B102231134DB
:100970002246F0BC00F091B901231034F8E770B5BD
:1009800004460D4621461068FFF75AFE02462946E6
:100990002046BDE870400023C6E7D21D22F00703C1
:1009A000D3E90023C0E70368126843F02003036023
:1009B0000823C3610023B7E7582C00002DE9F05F3E
:1009C000894604464FF0000ADFF874B1FB44C0F8D2
:1009D00020A02046E1688847002874D0252806D04A
:1009E000D4E901219047206A401C2062F1E70026EB
:1009F0005F462046E16888472028054607DB312D01
:100A000005D2781910F8200C08B10643F1E7B007B9
:100A100001D526F00406C4F81CA00027C4F818A0CD
:100A20002A2D09D0284602F0E2FB38B304EB8708F0
:100A3000303DC8F8185019E059F8041B204604EB63
:100A400087029161E1688847012F054618D1E06966
:100A5000002820DA26F020061DE0D8F8180000EB68
:100A6000800005EB40003038C8F818002046E168E7
:100A70008847054602F0BBFB0028EED1012F0AD0C3
:100A80002E2D08D12046E16888477F1C0546022F9D
:100A900046F02006C4DBA069002803DA404246F095
:100AA0000106A061F00701D026F010066C2D0BD0D6
:100AB000682D09D04C2D39D06A2D35D0742D35D004
:100AC0007A2D33D016E038E0E1682F46204688477B
:100AD000B842054609D16C2F26D04FF48060E168FA
:100AE000064320468847054604E06C2F1AD04FF491
:100AF000807006430DB3A5F14100192802D82035B6
:100B000046F400664A462946204626604E46FFF7D0
:100B10007DFB80B101280BD0F61D26F0070000F107
:100B2000080956E74020E4E78020D8E70020D6E710
:100B300006F104094DE7284652E7206ABDE8F09F18
:100B4000E82B00002DE9F04791460F468046044609
:100B5000002614F8015B2DB100F052F80068405DEA
:100B6000C007F6D12B2D02D02D2D18D0641E4A4679
:100B70003946204600F0A4FC27B13968A14201D1D2
:100B8000C7F800804FF0020471050BD540420028E1
:100B900003DDFFF721FD0460A007BDE8F08746F400
:100BA0008066E4E70028F8DAFFF716FD04606FF0CE
:100BB0000040F2E72DE9F04115460E46040002D14F
:100BC0002C6804B90BA4204600F0F9FC04442078FA
:100BD00070B127463146384600F0E1FC04442078E5
:100BE00010B1002004F8010B38462C60BDE8F081FC
:100BF0000027F9E70000000000487047340100209A
:100C000010B500F00FFD001D10BD00BF0D28000045
:100C100030B5B0F10A024FEA900E71F100034EEACE
:100C2000817EB0EB0E0061EB91014FEA101E4EEA9F
:100C3000017E10EB0E0041EB11114FEA102E4EEA2F
:100C4000016E10EB0E0041EB11214FEA104E4EEAFF
:100C5000014E10EB0E0041EB1141401841F1000133
:100C60004FEAD00040EA41704FEAD10110EB800515
:100C70004FEA810444EA907444EB01046D1944EB9B
:100C80000404521BA3414FF0000348BF0A3200D5B1
:100C900030BD401C41F1000130BD2DE9F0470D464B
:100CA00099469246044600F124080168880604D556
:100CB000E06921F01001216000E00120A84201DD7F
:100CC000471B00E00027A1697A1902EB0900081A06
:100CD000A0612078C00602D42046FFF781FC0026E0
:100CE00008E0D4E901211AF806009047206A401C68
:100CF000761C20624E45F4DB2078C0060AD52046DB
:100D0000FFF76EFC06E0D4E9012130209047206A0D
:100D1000401C2062381EA7F10107F4DC07E0D4E98B
:100D2000012118F805009047206A401C2062281E07
:100D3000A5F10105F3DC2046FFF768FC20780006EA
:100D400002D50220BDE8F0870120FBE770472DE9BE
:100D5000FF4F0C461E464FF0FF378BB0D2E9000123
:100D6000DDF860800A908A46C1F30A5505B93D4610
:100D7000002108464FF00000BAF1000F00F44000D7
:100D800005DA00EB80004FF4400101EA50004FEA21
:100D90009059B9F1010F00DDB9460A9850EA4A00AE
:100DA0000ED044F61050A5F2FF3545432F14B8F18C
:100DB000000F1ED07542291E1EDDC9F100021CE085
:100DC000B8F1010F4FF0000001D0302103E0F243F1
:100DD00005E02154401CB042FBDB304600220021DC
:100DE00021540B99C1F80880C1E900200FB0BDE87B
:100DF000F08FBD1B6D1CDEE74A4600DA694206A88B
:100E000000F062FC06AB93E8070003AB83E8070041
:100E100050460A9900F0DBFC8DE80700A0F5005071
:100E20001F3800900398002D0ADD42F21F014A4648
:100E30000844002303A90390684600F044FF09E03A
:100E4000A0F500504A461F38002303A903906846C6
:100E500000F04EFF8DE807000004000C03D04FF0B7
:100E6000FF30410800E01046B8F1000F03D0002227
:100E7000009215461EE0751E05D4FFF7C9FE3032FC
:100E800062556D1EF9D5B3460122084302D00022F7
:100E90007F1C04E02078302801D100227F1E002A28
:100EA000099784D01DE0112D07DAFFF7B1FE30322B
:100EB00062556D1C50EA0102F5D1084302D000983A
:100EC000C8B10EE00021681E05E0235C625C63543B
:100ED0002254401E491C8142F7DBAB46A81B401E32
:100EE0000990002004F80B000B98099AC0F80880BC
:100EF000C0E9002B7AE711264FF0000857E72DE9EB
:100F0000F04F88460446D21D22F0070191B0D1E986
:100F10000001CDE90A0102F042F902460B98C00F28
:100F200001D02D2007E02068810701D52B2002E0A9
:100F3000202101EAC000032A099001D0072A05DB1D
:100F400003464146204600F071FB0BE12078800605
:100F500001D5E06900E00620B8F1650F814606D0B2
:100F6000B8F1660F18D0B8F1670F70D131E00020EA
:100F7000B9F1110F009001DB112301E009F1010328
:100F80000AAA01A90CA8FFF7E2FEDDE90C70002611
:100F900009F10105834647E001204B4600904FF0E0
:100FA00000470AAA01A90CA8FFF7D1FEDDE90DB0A0
:100FB0000C995D46002610B909F101000D18B9EB36
:100FC000050003D4C0F1FF3609F10105A5EB0900C6
:100FD0002BE0B9F1010F01DA4FF001090020B9F15E
:100FE000110F0090484601DD112300E003460AAAD4
:100FF00001A90CA8FFF7ABFEDDE90C704D460026F9
:101000008346207800070AD4AB4500DA5D4601A884
:10101000012D04DD411911F8011C302907D04F457D
:1010200002DA17F1040F04DA012082460FE06D1E88
:10103000EEE7002F02DCED1B3E4403E0781CA842E3
:1010400000DD7D1CB81B00F1010A4FF0004720783D
:10105000000703D4AA4501DB4FF0FF3A0021B7F1A6
:10106000004F0DF143088DF8431024D002202B23AC
:10107000002F01DA7F422D230A21021EA0F1010078
:1010800000DC5FB197FBF1FC97FBF1F201FB1C7CEC
:1010900017460CF1300C08F801CDEEE7A8F101007D
:1010A00003702188090501D5452100E06521A0F1E3
:1010B000010800F8011C09980FA9A1EB0807FF1D02
:1010C00000B10120411901EBEA70A1693844081A06
:1010D000401EA0612078C00602D42046FFF780FAA7
:1010E000099828B1D4E901219047206A401C206268
:1010F0002078C00622D52046FFF772FA1EE0002EA7
:1011000004DBB34502DD01A8805D00E03020D4E9B6
:1011100001219047206A401C2062761CAAF1010040
:101120005FEA000A0AD100F07DFAC0680168405CFD
:10113000D4E901219047206A401C2062281EA5F1B5
:101140000105DCDC07E0D4E9012118F8010B904728
:10115000206A401C2062381EA7F10107F3DC2046FC
:10116000FFF754FA032011B041E600002DE9F04FDB
:1011700004460D46D21D22F0070089B0D0E9009741
:101180004846394602F00BF80246F80F01D02D23ED
:1011900007E02068810701D52B2302E0202101EA26
:1011A000C0038DF820300BB1012000E00020032A9D
:1011B000824601D0072A04DB2946204600F036FA91
:1011C0003FE12078800601D40D2500E0E569C7F3F2
:1011D0000A560D2D49DA00214FEA175B08464FF0F9
:1011E0000000002F00F4400007DA00EB80004FF40D
:1011F000400100EBD07001EA60008115012901DD9A
:101200004FF0FF3100224FEA850CBCF1180F06D3D6
:101210001346ACF118004FF08052C24003E04FF487
:10122000801323FA0CF30CF10C0CBCF1200F04D347
:10123000ACF1200C09FA0CF001E007FA0CF00029DF
:101240004FF0004801DD18B90FE00ED140450CD336
:1012500019EB02095F4121B9404502D19F4329EAB8
:101260000209BBEB175F00D0761C2088000502D571
:101270007B48784402E07A487844193808AA302339
:1012800002F80A30037C0AF10101002E0AF1020A79
:1012900053546A4602DC4FF0300101E04FF0310157
:1012A0004FF001088DF8001002D0A6F2FF3603E0DF
:1012B00059EA470100D06B4E002D02DC2178090766
:1012C00004D54FF002082E218DF80110C4460021EC
:1012D0000BE0C7F303433F01C35C491C6D1E02F8DA
:1012E0000830052908F1010801DA002DF1DC0021A0
:1012F0000CE000EB1973491C1B786D1E082902F8DD
:1013000008304FEA091908F1010801DA002DF0DC74
:1013100021688B0602D516E0A8F10108E04505DD3D
:1013200002EB080313F8013C302BF5D0B8F1000FA5
:1013300009DD02EB080313F8013C2E2B03D109074A
:1013400001D4A8F10108002D05DD3E2102F80810A6
:101350006D1E08F10108407C002E02F8080008F11B
:10136000010804DA2D20764202F8080002E02B2062
:1013700002F808000A214FF47A70864208F1010849
:101380000BDB96FBF0F3303302F8083096FBF0F3FA
:1013900008F1010800FB136601E0642E0CDB6420F9
:1013A00096FBF0F3303302F8083096FBF0F308F1C7
:1013B000010800FB136601E00A2E06DB96FBF1F044
:1013C000303002F8080008F1010896FBF1F001FB4B
:1013D0001060303002F80800A16908F1010808EB3C
:1013E000050202EB0A00081AA0612078C00602D4A8
:1013F0002046FFF7F5F8216A08AE01EB0A002062EB
:1014000004E0D4E9012116F8010B9047BAF1010A72
:10141000F7D22078C00602D52046FFF7E1F86E46E5
:1014200009E016F8010B3E280FD0D4E901219047BE
:10143000206A401C2062B8F10108F2D22046FFF772
:10144000E5F809B00320BDE8F08F206A2844206247
:1014500003E0D4E90121302090476D1EEBD3F8E77B
:101460006623000002FCFFFF10B5436913B1AFF320
:10147000008001E0FFF7EDF8012010BD127800F1C7
:1014800024010A7000224A700122EDE711684FF032
:10149000FF32E9E710B5436913B1AFF3008001E013
:1014A000FFF76EF9012010BD128800F1240182843B
:1014B0000022C2840122EDE711684FF0FF32E9E714
:1014C0002DE9F05F824615468B4600270AF101049C
:1014D000B9460078302801D09DB113E014F8010B13
:1014E0000127782803D0582801D045B10AE00DB172
:1014F000102D07D1002714F8010B102502E0082554
:1015000000E00A250026B0460EE005FB080005FBBA
:1015100006F101271FFA80F801EB1046B6F5803F6F
:1015200000D3B94614F8010B294600F0BFF8002893
:10153000EBDABBF1000F05D00FB1641E00E054469A
:10154000CBF80040B9F1000F06D0FFF745F80221B3
:101550000160C81EBDE8F09F48EA0640FAE770B592
:1015600016460C460546FFF74BFB036893F801014E
:10157000012806D0FF2C0FD8185D68B101202C700F
:1015800070BDD3F807013246214603F20713034426
:101590002846BDE8704018474FF0FF3070BD30B5A9
:1015A00003461D781DB10A4603E0AC4201D1181A6A
:1015B00030BD12F8014B002CF7D15B1CF1E730B5C0
:1015C00003461D783DB10A4612F8014B1CB1AC42EE
:1015D000FAD15B1CF5E7181A30BD7546FFF70CFB16
:1015E000AE4605006946534620F00700854618B010
:1015F00020B5FEF785FEBDE820404FF000064FF015
:1016000000074FF000084FF0000B21F00701AC4637
:10161000ACE8C009ACE8C009ACE8C009ACE8C00956
:101620008D46704700487047540100202DE9F04175
:101630001F46044603260168072A01F4006004DB04
:1016400008B116A505E016A503E008B115A500E050
:1016500015A521F010002060A069C01EA0610FB187
:10166000401EA0612046FEF7BBFF4FB1D4E9012127
:1016700038469047206A401C2062C01C206206E069
:10168000206AFAE7D4E9012115F8010B9047761E8C
:10169000F8D22046FEF7BAFFBDE8F0814E414E0079
:1016A0006E616E00494E4600696E66003A2800D2AF
:1016B000303820F02002412A01D3A2F137008842BD
:1016C00001D34FF0FF3070472DE9F04781461646B1
:1016D0008AB0354878440DC88DE80D00324878440A
:1016E000801C03AC0DC884E80D0041F69B30084413
:1016F000372190FBF1F290FBF1F5A5F1800501FB9C
:1017000012041B3C02D56442012000E00020DFF8F7
:1017100098A080460027FA44AAF1BE0A0EE0E0072E
:101720000AD03246684607EB470101230AEB8101E4
:1017300000F0DEFA8DE8070064107F1C002CEED16B
:10174000194F7F44AE3F19E0E80715D007EB0410AE
:101750000DF1180A90E80E008AE80E00C068F04209
:1017600001D1981908903246012306A903A800F078
:10177000BFFA03AB83E807006D10641C002DE3D1B2
:101780004FF0010332466946B8F1000F03A802D0BA
:1017900000F099FA01E000F0ABFAC9E90001C9F8DC
:1017A00008200AB0BDE8F087941F000010B5044679
:1017B000AFF300802046BDE81040FEF78CBD00006E
:1017C00001491820ABBEFEE72600020070475FEA21
:1017D000400C08BF91F0000F4FEA8C234FEAC12262
:1017E00043EA51514FEA1C5018BF00F5F0404FEA50
:1017F000300018BF41F000415FEA6C5C00F02980C6
:10180000BCF1FF3F08BF40F080407047130C06BF9B
:1018100012044FF0100C4FF0000C130E04BF120214
:101820000CF1080C130F04BF12010CF1040C930F00
:1018300004BF92000CF1020CD30F04BF52000CF154
:10184000010C11464FF00002A0F11F00A0EB0C00AC
:10185000704711F0004F08BF704731F000413FF46E
:10186000D5AF0B0C06BF09044FF0100C4FF0000C65
:101870000B0E04BF09020CF1080C0B0F04BF090189
:101880000CF1040C8B0F04BF89000CF1020CCB0F80
:1018900004BF49000CF1010CCCF12003A0EB0C00BB
:1018A00022FA03F302FA0CF241EA030100F101000B
:1018B000704720F07F4C80EA030023F07F47ACEBB9
:1018C000070303F57C5300F0004003F1FF032DE90B
:1018D00080494FEA154B09B44FEA144325EA0B4EF1
:1018E00024EA03480FF2042606EB132749083E7842
:1018F0005FEA320203FB0667C7F5000707FB06F63F
:101900004FEA54374FEAD64606F1020607FB066C4B
:10191000CCF1005C4FEA1C472CEA074C07FB06F4AD
:101920000CFB06F504EB15464FEA961634BF002073
:101930004FF000404FEAD13706FB07FC4FEA1C4C42
:101940000CFB0BF7D21B03FB0CF761EB07010CFB45
:101950000EF7B0EB074072EB17420CFB08F734BFF1
:10196000A2EB0742B2EB074261EB17414FEA0C448E
:101970004FEA910706FB07FC4FEA1C4C0CFB0BF7E8
:10198000B0EBC74072EB573203FB0CF734BFA2EB4E
:10199000C742B2EBC74261EB57310CFB0EF7B0EB1D
:1019A000C70072EB57720CFB08F734BFA2EBC702FB
:1019B000B2EBC70261EB5771039F4FEA816141EAC5
:1019C000921104EBCC044FEAD1374FEA826206FB56
:1019D00007FC42EA90124FEA80604FEA1C4C0CFB75
:1019E0000BF7D21B03FB0CF761EB07010CFB0EF7A7
:1019F000B0EB074072EB17420CFB08F734BFA2EBC9
:101A00000742B2EB074261EB17414FEA8C554FEAB0
:101A1000910704EB9C2406FB07FC4FEA1C4C0CFBD3
:101A20000BF7B0EBC74072EB573203FB0CF734BF38
:101A3000A2EBC742B2EBC74261EB57310CFB0EF78A
:101A4000B0EBC70072EB57720CFB08F734BFA2EB88
:101A5000C702B2EBC70261EB577115EB4C254FEA99
:101A6000816141EA92114FEA82624FEAD13742EA3C
:101A7000901206FB07FC44F100044FEA80604FEA35
:101A80001C4C0CFB0BF7D21B03FB0CF761EB0701A3
:101A90000CFB0EF7B0EB074072EB17420CFB08F79C
:101AA00034BFA2EB0742B2EB074261EB174115EBE3
:101AB0001C154FEA813141EA92414FEA823242EAF3
:101AC00090424FEA80304FEA0C7644F1000448EA35
:101AD00003434EEA0B484FF0000EB2EB080C71EBDB
:101AE000030724BF624639464EEB0E0E4FF0000B43
:101AF0000018524149414BEB0B0BB2EB080C71EB58
:101B000003077BF1000B24BF624639464EEB0E0EF5
:101B10004FF0000B0018524149414BEB0B0BB2EB5D
:101B2000080C71EB03077BF1000B24BF62463946BA
:101B30004EEB0E0E51EA020718BF46F0010616EBF7
:101B40000E7655F1000254F1000103D5BDE889017C
:101B5000BDE80088BDE88901BDE80048B6195241DA
:101B600041EB0101A3F10103704780807F7E7D7C02
:101B70007B7A7978777676757473727171706F6E1F
:101B80006E6D6C6C6B6A6A696868676666656464CA
:101B9000636362616160605F5F5E5E5D5D5C5C5B54
:101BA0005B5A5A59595858575756565555555454C3
:101BB000535352525251515050504F4F4F4E4E4D21
:101BC0004D4D4C4C4C4B4B4B4A4A4A49494948486D
:101BD00048474747474646464545454444444443AD
:101BE00043434342424242414141002B9C4630D450
:101BF00077002BD01CB54FEA370703B44FF0100025
:101C00004FF01001BAF1000F06D0BCF1000FDCBF9D
:101C100040F0080040F008014FF000000FBCBDE8A4
:101C200010400BF1010BBBF1010F08BF5FEA170772
:101C300022BF12F1010211F101014FF0004143F105
:101C4000000300F0004043EA00007047F9D3570852
:101C5000D0E746EA064613F1400F4FEA16461FDD6D
:101C600013F1200FDFBF16430A46002120335B42E9
:101C7000BED0C3F1200746EA064602FA07F74FEA4C
:101C8000164646EA0706C3F1200722FA03F201FAD4
:101C900007F721FA03F14FF0000342EA0702A7E732
:101CA00046EA020646EA06464FEA164646EA0106B4
:101CB000BCBF46EA0646360C4FF000034FF0000268
:101CC0004FF0000194E72DE9804C9A46934670B49A
:101CD00091E8380007C831EA400C48BF34EA430CA9
:101CE00003D5FFF7E6FDFFF780FFF0BCBDE8008CF1
:101CF0002DE9804C9A46934670B491E8380007C8A5
:101D000010F0804F08BF13F0804F03D100F005F8AA
:101D1000FFF76BFFF0BCBDE8008C20F07F4780EA46
:101D2000030023F07F4C07EB0C03A3F57C5300F07A
:101D30000040A3F1FE0392F0000F00F0B38095F095
:101D4000000F00F077802DE901494FEA11404FEA7A
:101D5000144621EA004800FB06FC24EA064708FB7B
:101D600006F607FB08F800FB07F718EB06484CEBF4
:101D7000164C4FEA124B18EB07484FEA15464CEB4E
:101D8000174022EA0B4E0BFB06FC25EA06470EFB2A
:101D900006F607FB0EFE0BFB07F71EEB064E4CEBA1
:101DA000164C4FF000061EEB074E4CEB174B18EB92
:101DB0000B0840F1000018EB0E0B58EB000840F147
:101DC00000008F1A4FF000013CBFC943661B14BFCF
:101DD000B5EB040C00213CBFC943F61B4FEA174486
:101DE0004EEA8E0E27EA04454FEA1C4704FB0762C1
:101DF0002CEA074C05FB07F70CFB05F604FB0CFC73
:101E000016EB074642EB174216EB0C4642EB1C4220
:101E10001BEB060658EB0202414146EA9E0601D53D
:101E2000BDE80189B619524141EB0101A3F101035B
:101E3000BDE801894FEA14454FEA114724EA0546F7
:101E400021EA074C05FB07F406FB07F70CFB06F13C
:101E500005FB0CFC11EB074144EB17444FEA12471A
:101E600011EB0C4144EB1C4422EA074C05FB07F242
:101E700006FB07F70CFB06F605FB0CFC16EB07460A
:101E800042EB174216EB0C4642EB1C456A1854F124
:101E9000000148BF7047B619524141EB0101A3F15F
:101EA0000103704795F0000F37D04FEA11424FEA17
:101EB000144721EA024624EA074C02FB07F106FB1D
:101EC00007F70CFB06F402FB0CFC14EB074441EB98
:101ED00017414FEA154714EB0C4441EB1C4125EA2E
:101EE000074C02FB07F506FB07F70CFB06F602FBA7
:101EF0000CFC16EB074645EB174516EB0C4645EB7D
:101F00001C42121951F1000148BF7047B6195241E5
:101F100041EB0101A3F1010370474FEA14454FEA79
:101F2000114724EA054621EA074C05FB07F106FBA9
:101F300007F70CFB06F24FF0000605FB0CFC12EB5A
:101F4000074241EB174112EB0C4251EB1C4148BFD9
:101F50007047921841EB0101A3F1010370470000A3
:101F6000012804D0022805D0BBEE040A70479FED7B
:101F7000030A70479FED020A704700000000A44169
:101F800000003642FEE770472DE9F0410446876DB8
:101F900000F04CF9064694F835000025022806D0DA
:101FA0008020606584F834500120BDE8F08120680D
:101FB000016821F0160101602068416921F080016B
:101FC0004161206C08B9A06C20B12068016821F043
:101FD000080101602068016821F0010101600CE046
:101FE00000F024F9801B052807D920206065032014
:101FF00084F8350084F83450D7E720680068C007BB
:10200000EED194F85C103F208840B860012084F83D
:10201000350084F834500020C7E790F835100229C5
:1020200003D08021416501207047052180F83510DB
:102030000068016821F00101016000207047000084
:102040002DE9F84FDFF8B8A10022012403254FF055
:102050000F090AF1040BAAF1040E00BF0B6804FA81
:1020600002F63340B34273D10F7907F00307012F13
:1020700001D0022F16D187684FEA420805FA08FC02
:1020800027EA0C07D1F80CC00CFA08FC4CEA070C44
:10209000C0F808C04768B7430E79C6F300169640EB
:1020A0003E4346600E79F643B6070DD0C76856002A
:1020B00005FA06FC27EA0C07D1F808C00CFA06FC62
:1020C0004CEA070CC0F80CC00E7906F00306022E8D
:1020D00010D1D60800EB8608D8F8206057074FEAE1
:1020E000D76C09FA0CF7BE430F6907FA0CF73743B0
:1020F000C8F8207006684FEA420C05FA0CF7BE4398
:102100000F7907F0030707FA0CF7374307604E68AB
:1021100016F4403F6DD03B4E376847F48047376038
:10212000366822F0030706F480460096364E07EB29
:10213000060CDCF8086897073F0F09FA07F826EA4B
:102140000806DFF8C880404503D14FF000081EE0C4
:102150004FE0DFF8BC80404502D14FF0010816E0A7
:10216000DFF8B080404502D14FF002080FE0DFF801
:10217000A880404502D14FF0030808E0DFF89C80BA
:10218000404502D14FF0040801E04FF0070808FA7B
:1021900007F848EA0608CCF80888DAF800605746DD
:1021A000D1F804C09E435FEACC2C00D51E433E60AC
:1021B000DBF800605F46D1F804C09E435FEA8C2CD8
:1021C00000D51E433E60DEF800607746D1F804C0BB
:1021D0009E435FEA8C3C00D51E433E60084F083F9B
:1021E0003E68D1F804C09E435FEACC3C00D51E4354
:1021F0003E60521C102AFFF431AFBDE8F88F00009A
:10220000083C0140443802400030014000000240D8
:102210000004024000080240000C0240001002408E
:102220000AB1816170470904FBE70000014880683A
:1022300070470000040000200248816802781144C1
:1022400081607047040000200B4810B5016841F41C
:1022500000710160016841F480610160016841F42E
:1022600080710160032000F077F80F2000F006F87D
:1022700000F024F8002010BD003C024070B50D4D68
:1022800004464FF47A712878B1FBF0F00A490968E6
:10229000B1FBF0F000F012FB48B9102C07D200227D
:1022A0002146501E00F038F800206C6070BD0120FF
:1022B00070BD000004000020100000200E4808B58A
:1022C000016841F480410160006800F480400090A2
:1022D0000948001F016841F0805101600068002238
:1022E00000F0805000901146052000F015F8BDE880
:1022F0000840052000F002B844380240002809DBFD
:1023000000F01F02012191404009800000F1E0200F
:10231000C0F8001170470000F0B40E4B1B680C466B
:10232000C3F30223C3F10705042D00D90425191DA9
:10233000072901D2002300E0DB1E012606FA05F181
:10234000491E214099409E40761E16403143F0BC04
:1023500000F03DBF0CED00E0064900F00702086800
:102360004FF6FF03184040EA0220034A104308607A
:10237000704700000CED00E00000FA052DE9F04781
:102380000E46050065D0DFF81481D8F80000F7B2DA
:1023900000F00700B04207D288F80070D8F80000BB
:1023A00000F00700B04254D128683D4C810712D597
:1023B000400703D5206840F4E050206028780007EB
:1023C00003D5206840F4604020602068A96820F0B0
:1023D000F000084320602878C0072DD03049686895
:1023E0000839012812D0022813D0032811D0096817
:1023F000890700292DDA216821F0030101432160BA
:10240000FFF714FF814641F2883A0EE0096889031C
:10241000EFE709688901ECE7FFF708FFA0EB090186
:10242000514502D90320BDE8F0872068696800F0B3
:102430000C00B0EB810FEFD1D8F80010404601F04E
:102440000701B14207D90770006800F00700B042E9
:1024500001D00120E7E72878400705D52068E96822
:1024600020F4E050084320602878000706D5206853
:10247000296920F4604040EAC100206000F038F88B
:102480002168084AC1F30311515CC840064908603D
:1024900006480068FFF7F2FE0020C4E7003C024057
:1024A00008380240703500081000002008000020A5
:1024B0000448054900680968044AC1F38221515C57
:1024C000C8407047100000200838024080350008DE
:1024D0000448054900680968044AC1F34231515C67
:1024E000C8407047100000200838024080350008BE
:1024F000154810B5006810F00C02144813D04110B4
:10250000042A0FD0082A0ED10F4C241F22682368FA
:1025100002F03F025B0207D52068C0F38810A0FBE1
:10252000010106E0084610BD2168C1F38811A1FB36
:1025300000010023FDF7F6FE2168C1F30141491CAB
:102540004900B0FBF1F010BD083802400024F4004F
:102550002DE9F84F04006ED02078DFF84C93C007C7
:10256000A9F104054AD009F104000168C1F3810111
:10257000012908D00068C0F3810002280AD1D9F8E7
:102580000000400206D52868800337D5606800281F
:10259000E1D033E06068B0F5803F10D0B0F5A02FF7
:1025A000286810D020F480302860286820F480202B
:1025B00028606068A8B1FFF739FE06460DE028687C
:1025C00040F48030F4E740F480202860F7E700BF53
:1025D000FFF72CFE801B642873D828688003F7D58A
:1025E0000CE0FFF723FE064605E000BFFFF71EFEE6
:1025F000801B6428F0D828688003F7D42078DFF89F
:10260000AC8280074FF0000A3ED5A748001D016844
:1026100011F00C0F08D00068C0F3810002280BD124
:10262000D9F80000400207D42868800716D5E06872
:10263000012800D112E033E1E068B8B10120C8F808
:102640000000FFF7F3FD064605E000BFFFF7EEFDD3
:10265000801B0228C0D828688007F7D52868216920
:1026600020F0F80040EAC10028600DE0C8F800A0A2
:10267000FFF7DCFD064604E0FFF7D8FD801B0228CB
:102680001FD828688007F7D42078000722D5864F06
:1026900087486169703771B101210160FFF7C6FD9C
:1026A000064604E0FFF7C2FD801B022809D83868FF
:1026B0008007F7D50EE0C0F800A0FFF7B7FD06468B
:1026C00005E082E0FFF7B2FD801B02287DD8386864
:1026D0008007F7D42078400768D5DFF8CCB1002711
:1026E0000BF13C0BDBF80000C0000BD4DBF8001052
:1026F00041F08051CBF80010DBF80000012700F01A
:10270000805000906B4E3068C00510D4306840F4A3
:1027100080703060FFF78AFD009005E0FFF786FDCE
:102720000099401A022850D83068C005F6D55E4E90
:10273000A0686C3601280FD00528306810D020F032
:1027400001003060306820F004003060A068B8B14B
:10275000FFF76CFD00900FE0306840F00100F4E7F7
:1027600040F004003060F7E7FFF760FD0099411A80
:1027700041F28830814266D830688007F4D50EE097
:10278000FFF754FD009007E0FFF750FD0099411A54
:1027900041F28830814256D830688007F4D42FB196
:1027A000DBF8001021F08051CBF80010A069C8B30D
:1027B0003D49091D0968C1F3810102294AD0022857
:1027C000504607D0C8F8600000E03CE0FFF72EFD5F
:1027D00004463BE04746C8F86000FFF727FD064681
:1027E00005E000BFFFF722FD801B02282BD82868D8
:1027F0008001F7D4D4E907010843A16A2E4A4908A9
:1028000002EB0141626A41EA8211084394F82C10FC
:1028100040EA0161C9F8001001203866FFF706FDA3
:10282000044606E03EE000BFFFF700FD001B022863
:1028300009D828688001F7D534E000BFFFF7F6FC1F
:10284000001B022802D90320BDE8F88F2868800108
:10285000F4D427E00128F7D0D9F80000E26900F4A9
:10286000800191421CD1226A00F03F01914217D1B0
:1028700047F6C071626A0140B1EB821F10D1A26AB3
:102880004FF0FF3300F4403103EB5202B1EB024F43
:1028900006D194F82C1000F07060B0EB016F01D0FD
:1028A0000120D1E70020CFE7043802400000474272
:1028B000800E4742007000400000FFFF10B5401E30
:1028C000B0F1807F01D3012010BD4FF0E0246061A2
:1028D0000F21601700F07BFC0020A0610720206121
:1028E000002010BD70477047F8B5016804460868BD
:1028F000CA684B6910F00F0F4FF0000559D003F074
:10290000010602F49077374365D0C10705D0D105A1
:1029100003D5216C41F001012164410705D5D90798
:1029200003D0216C41F002012164810705D5D9074C
:1029300003D0216C41F004012164010707D502F0A6
:102940002001314303D0216C41F008012164216C46
:1029500000293AD0800604D5900602D5204600F022
:10296000D6FA20684069216CC0F38010090700D4B2
:1029700060B3204600F0A4FA20684069400621D5E3
:102980002068143050E8001F21F0400140E8001298
:10299000002AF5D1A06BA8B16C490165A06BFFF7C7
:1029A0003CFB002811D0A06B016D01B0BDE8F040E8
:1029B000084783060FD593060DD52046BDE8F8409D
:1029C00000F0A5BA2046FFF78EFFF8BD2046FFF7BE
:1029D0008AFF2564F8BD266B2023012E79D1C60617
:1029E00077D5D60675D508684868009048694006CE
:1029F00040D5A16B086840680004000CEAD0A28DA5
:102A00008242E7D9E085C869B0F5807F2DD0206883
:102A10000C3050E8001F21F4807140E80012002AB9
:102A2000F5D12068143050E8001F21F0010140E882
:102A30000012002AF5D12068143050E8001F21F060
:102A4000400140E80012002AF5D184F83E302563A9
:102A500020680C3050E8001F21F0100140E80012FF
:102A6000002AF5D1A06BFFF78FFAA08DE18D401AF7
:102A700081B229E0A08DE18D401A81B2E08D00285D
:102A8000A8D00029A6D020680C3050E8002F22F4EE
:102A9000907240E80026002EF5D12068143050E8EE
:102AA000002F22F0010240E80026002EF5D184F824
:102AB0003E30256320680C3050E8002F22F01002D1
:102AC00040E80023002BF5D12046FFF70BFFF8BDAF
:102AD000FFE705062BD5150629D594F83D002128DA
:102AE000F5D1A068B0F5805F01D12069B0B1206A4E
:102AF000411C2162216800784860E08C401E00047F
:102B0000000CE084E3D12068C16821F08001C1603D
:102B10002068C16841F04001C160D8E7206A0088A0
:102B2000C0F308004860206A801C2062E5E7400688
:102B3000CDD55006CBD5CA68204622F04002CA60E7
:102B400084F83D3000F0F7F8C1E70000B12E00082E
:102B500070B5040004D094F83D00002510B106E0E3
:102B6000012070BD84F83C50204600F023F824205A
:102B700084F83D002068C16821F40051C1602046FE
:102B800000F026FA2068016921F490410161206873
:102B9000416921F02A0141612068C16841F4005176
:102BA000C1602564202084F83D0084F83E000020A8
:102BB00070BD000010B586B0044614216846FDF7CC
:102BC000A0FC17492068884228D1164800210268D5
:102BD00042F020020260006800F0200005901148D9
:102BE0001438026842F004020260006800F0040039
:102BF0000590C02000900220CDE901010320039040
:102C00000820049069460848FFF71AFA0022114686
:102C10004720FFF781FB4720FFF770FB06B010BD90
:102C200000140140443802400008024090F83E3051
:102C3000202B0ED159B152B190F83C30012B08D065
:102C4000012380F83C300023036300F047BA0120E1
:102C5000704702207047000010B5084900680968F5
:102C600088420AD10648007800F070FBBDE81040A9
:102C7000012203490148FFF7D9BF10BD48000020D9
:102C8000000000202DE9F843044690F83D001F465F
:102C900016460D4620284CD1C5B1BEB194F83C0073
:102CA000012846D0012084F83C004FF00008C4F809
:102CB0004080212084F83D00FFF7B8FAA6848146C1
:102CC000E684A068B0F5805F03D004E00120BDE891
:102CD000F883206928B12E465FF0000584F83C8017
:102CE0000EE00026FAE78021204600F014FAA0B991
:102CF000AEB116F8010B21684860E08C401EE084FC
:102D0000E08C4B464FF0000200970028EBD14FF0CB
:102D10004001204600F0FFF930B10320D7E735F835
:102D2000020BC0F30800E6E7202084F83D000020F5
:102D3000CDE70220CBE77047FEE7000070B586B014
:102D400014216846FDF7DDFB1A480024016841F0B4
:102D500080010160016801F080010591016841F086
:102D600008010160016801F008010591016841F066
:102D700004010160016801F004010591016841F05E
:102D80000101016000680C4E00F001004FF4005595
:102D90000590002229463046FFF742FA01200095AF
:102DA000CDE90104694630460394FFF749F906B0BE
:102DB00070BD000030380240000C02400E4810B5D3
:102DC0000C4901604FF4E1314160002181600C2227
:102DD000C160C0E904128161C161FFF7B9FE08B1A9
:102DE00072B6FEE7BDE81040012204490248FFF731
:102DF0001DBF00000014014048000020000000201A
:102E0000FEE7FEE7704770477047FFF715BA00000E
:102E100030B593B030216846FDF773FB14210CA840
:102E2000FDF76FFB1C480025016841F080510160EF
:102E3000006800F0805011901848016841F440414A
:102E400001600068022400F44040119001200090CD
:102E5000000401908001CDE9064008AA0420642105
:102E600082E813000B906846FFF772FB08B172B658
:102E7000FEE70CA90F2081E831004FF48050CDE926
:102E80000F0503210CA8FFF779FA002801D072B6CC
:102E9000FEE713B030BD0000403802400070004033
:102EA0000248016841F470010160704788ED00E05C
:102EB00010B5806B0021C185C184FFF714FD10BDE2
:102EC00001680C3151E8002F22F4907241E8002390
:102ED000002BF5D10168143151E8002F22F00102D6
:102EE00041E80023002BF5D1016B012909D10168CC
:102EF0000C3151E8002F22F0100241E80023002B92
:102F0000F5D1202180F83E1000210163704708B5FB
:102F100090F83E10222901D0022008BD82684FF4AB
:102F200080539A4201D1016921B1816A9A421BD032
:102F30004AB10AE00268816A5268C2F308020A8054
:102F4000816A891C08E0026972B10268526802F065
:102F50007F020A70816A491C8162C18D491E090481
:102F6000090CC18503D019E002685268F1E70168D5
:102F7000CA6822F02002CA600168CA6822F480721E
:102F8000CA6001684A6922F001024A61202180F882
:102F90003E10016B012903D0FFF75EFE002008BD43
:102FA0000021016301680C3151E8002F22F010026A
:102FB00041E80023002BF5D101680A68D20602D54A
:102FC0000A6849680091818DFFF78CFCE6E70000F4
:102FD00070B5044600680169E26821F4405111436C
:102FE00001612169A068E2690843616911430843EE
:102FF0002168CA6849F20C639A430243CA60206898
:103000004169A26921F4407111434161314920684D
:10301000884202D03049884202D1FFF759FA01E0D4
:10302000FFF746FAE2690023192164253226B2F53A
:10303000004F626828D0A0FB0101930F9200FDF7BA
:1030400071F90146B0FBF5F06FF01802504301EB47
:10305000800006EB0010B0FBF5F000F0F002B1FBD1
:10306000F5F002EB0012B1FBF5F06FF018035843D6
:1030700001EB800006EB0010B0FBF5F000F00F0054
:1030800021681044886070BDA0FB010192185B416B
:10309000FDF748F90146B0FBF5F00201B1FBF5F090
:1030A0006FF01803584301EB800006EBC000B0FB43
:1030B000F5F000F0F80002EB4002B1FBF5F05843E8
:1030C00001EB800006EBC000B0FBF5F000F007005C
:1030D000D6E70000001001400014014081628285A3
:1030E000C28500210164222280F83E2080F83C1035
:1030F000016921B10168CA6842F48072CA6001683E
:103100004A6942F001024A610068C16841F0200149
:10311000C160002070472DE9F041984617460E46E1
:103120000446069D27E0681C25D02DB1FFF77EF8E8
:10313000A0EB0800A8421ED920680C3050E8001F00
:1031400021F4D07140E80012002AF5D12068143033
:1031500050E8001F21F0010140E80012002AF5D1DB
:10316000202084F83D0084F83E00002084F83C00D4
:103170000320BDE8F0812068006836EA000004D032
:103180000020B842CFD00020F3E70120F9E700008B
:103190000148FFF7A9BB000048000020FEE703B488
:1031A00001984100009850EAC12018BF04204A0D40
:1031B00018BF40F0010040F2FF72B2EB515F08BF50
:1031C00040F00200012808BF052002B0704709073F
:1031D000090E002804DB00F1E02080F8001470479D
:1031E00000F00F0000F1E02080F8141D7047303827
:1031F0000A2801D2012070470020704770B58AB0BC
:10320000002514A1FDF726F96C4607E044F82500D7
:103210006D1CEDB20FA10020FDF71CF90028F5D1BF
:103220000D480E4C009E06E03146FDF791F900284E
:10323000206806D00830206000680028F4D10AB069
:1032400070BD40680028FAD0026829466846904759
:10325000F5E70000200000002C00002018000020EE
:1032600010B5022901D90E4801E004D20D48BDE88D
:10327000104000F0A7B84068FDF7DEF8C4B2204661
:10328000FEF76EFE10EE100A00F0F8F841EC100B9D
:103290002146BDE8104053EC102B03A000F092B87B
:1032A000D0360008843600084368616E6E656C2075
:1032B00025642074656D706572617475726520692E
:1032C000732025662064656772656573204300007E
:1032D0009EB0FEF7B9FFFFF79BFDFFF72FFDFFF74D
:1032E0006DFD262218490DA8FDF7D9F8164CE08C83
:1032F000ADF85A00A06A1790A08DADF86000E08D7F
:10330000ADF86200206B1990092204F134011AA86B
:10331000FDF7C5F894F83D008DF8710094F83E0073
:103320008DF87200206C1D90342211A96846FDF7BB
:10333000B6F80DF1340C9CE80F0000F019F800BF4E
:1033400000F058F8FCE7000048000020064910B5DE
:103350000A78064C531CDBB20A2802D101204870BF
:103360000020A0540B7010BD140000208C00002021
:103370000FB4262210B502A91148FDF790F8BDF848
:103380002E000F4CE0840C98A062BDF83400A0859C
:10339000BDF83600E0850E98206309220FA904F1DC
:1033A0003400FDF77CF89DF8450084F83D009DF859
:1033B000460084F83E001298206410BC5DF814FBAF
:1033C000F00000200FB400B599B01BAA68461A9906
:1033D000FDF720F86846FDF743F882B2642369469A
:1033E0000248FFF74FFC19B05DF814FBF000002015
:1033F0007047000010B5064C6078012806D121788E
:103400000448FFF7FBFE00206070207010BD000034
:10341000140000208C00002010B500290AD0087884
:10342000002807D005487844FDF792F8002801D01D
:10343000002010BD0248784410BD00007A0300004F
:103440007203000010B500290AD00878002807D0C0
:1034500005487844FDF77CF8002801D0002010BD15
:103460000248784410BD00005E04000056040000CD
:103470000808A0F500114FEA3101704743004FEAF8
:10348000D30C4FEA3C0C43401FBF40070CF1605186
:1034900013F0FE4F70471CF0006F03D100200CF0BA
:1034A000004170470CF0004343EA507010B540EA09
:1034B000CC0000F00EF800BF000000924FEA0001BF
:1034C000FFF7D6BF4FF000414FF00000A1F50021FB
:1034D00070470EF1020E2EF0030E5EF8044B2442EC
:1034E00004D44FEA4102B2F17F4F11D84FEA4003B2
:1034F000B3F17F4F0CD80ED14FEAD07CB2F17F4FA1
:103500000CEB4C0C0CF1020C08BF4CEBD17C04E032
:103510004FF0080C01E04FEAD17C0CEB4C0324FA8D
:1035200003F404F00704B4F1040C06D20EEB840C8F
:10353000BDE810404CF0010C6047DFE80CF00708D4
:1035400002024FF00040A0F5800010BD0846420086
:1035500018BFD2F1807288BF00F0004010BD4FF05C
:103560004070E1EE100A7047FDF7C9BCFDF7FEBDE3
:103570000000000000000000010203040607080923
:103580000000000001020304000000000000000031
:103590003031323334353637383941424344454689
:1035A0004030580030313233343536373839616283
:1035B0006364656640307800040000080000000085
:1035C0000000000200010000103031323334353683
:1035D0003738396162636465667870003031323340
:1035E0003435363738394142434445465850000057
:1035F00002400000000000A00000000005400000A4
:10360000000000C8000000000C4000000000409CCA
:1036100000000000194000000020BCBE00000000B7
:1036200034400000BFC91B8E00000004B5400000FC
:10363000504BCFD06607E2CF010000006C41000084
:103640003E8251AADFEEA73401000000D9420000FB
:10365000DCB5A0E23A301F97FFFFFFFFB445000042
:10366000FD25A0C8E9A3C14FFFFFFFFFFF3F0000FA
:103670000000008000000000FF3F0000000000800C
:1036800000000000496E76616C696420636F6D6DA7
:10369000616E642C206E6F7420656E6F7567682094
:1036A000706172616D65746572732028457870650C
:1036B00063746564206E756D626572206F6620703C
:1036C0006172616D657465727320697320322900BF
:1036D000496E76616C696420636F6D6D616E642CF8
:1036E00020746F6F206D616E7920706172616D65FD
:1036F0007465727320284578706563746564206E04
:10370000756D626572206F6620706172616D65749F
:10371000657273206973203229000000526561646C
:1037200020746570657261747572652066726F6D64
:1037300020424D452073656E736F7200536574208F
:103740006D6178696D756D207468726573686F6CF2
:103750006420666F722074656D7065726174757235
:103760006500000067657454656D706572617475FD
:103770007265000073657454656D4D6178000000DA
:10378000CC3800080000002048000000D4010008E8
:10379000143900084800002050070000F00100081C
:1037A0001001000043000000F8FFFFFF0040404010
:1037B0004040404040404141414141404040404004
:1037C00040404040404040404040404040050202B0
:1037D000020202020202020202020202022020206F
:1037E00020202020202020020202020202029090CB
:1037F00090909090101010101010101010101010C9
:10380000101010101010101002020202020288881C
:103810008888888808080808080808080808080828
:103820000808080808080808020202024000000010
:103830000000000000000000000000000000000088
:103840000000000000000000000000000000000078
:103850000000000000000000000000000000000068
:103860000000000000000000000000000000000058
:103870000000000000000000000000000000000048
:103880000000000000000000000000000000000038
:103890000000000000000000000000000000000028
:1038A0000000000000000000000000000000000018
:1038B0001C00000043000000F8FFFFFF0C000000A8
:1038C0000E0000000F0000002E00000000000000AD
:1038D0000100000010000000000000000024F400BF
:1038E0000000000000000000613200081C370008E2
:1038F000F13300083C370008643700081C00002042
:1039000074370008240000200000000000000000C0
:0439100000000000B3
:040000050800019955
:00000001FF
